{
  "_format": "hh-sol-artifact-1",
  "contractName": "AscStaking",
  "sourceName": "contracts/AscStaking.sol",
  "abi": [
    {
      "inputs": [
        {
          "internalType": "address",
          "name": "_stakingToken",
          "type": "address"
        }
      ],
      "stateMutability": "nonpayable",
      "type": "constructor"
    },
    {
      "anonymous": false,
      "inputs": [
        {
          "indexed": true,
          "internalType": "address",
          "name": "user",
          "type": "address"
        },
        {
          "indexed": false,
          "internalType": "uint256",
          "name": "index",
          "type": "uint256"
        },
        {
          "indexed": false,
          "internalType": "bool",
          "name": "status",
          "type": "bool"
        }
      ],
      "name": "AutoReinvestSet",
      "type": "event"
    },
    {
      "anonymous": false,
      "inputs": [
        {
          "indexed": true,
          "internalType": "address",
          "name": "previousOwner",
          "type": "address"
        },
        {
          "indexed": true,
          "internalType": "address",
          "name": "newOwner",
          "type": "address"
        }
      ],
      "name": "OwnershipTransferred",
      "type": "event"
    },
    {
      "anonymous": false,
      "inputs": [
        {
          "indexed": true,
          "internalType": "address",
          "name": "user",
          "type": "address"
        },
        {
          "indexed": false,
          "internalType": "uint256",
          "name": "amount",
          "type": "uint256"
        }
      ],
      "name": "RewardsClaimed",
      "type": "event"
    },
    {
      "anonymous": false,
      "inputs": [
        {
          "indexed": true,
          "internalType": "address",
          "name": "user",
          "type": "address"
        },
        {
          "indexed": false,
          "internalType": "uint256",
          "name": "amount",
          "type": "uint256"
        },
        {
          "indexed": false,
          "internalType": "uint256",
          "name": "index",
          "type": "uint256"
        }
      ],
      "name": "RewardsReinvested",
      "type": "event"
    },
    {
      "anonymous": false,
      "inputs": [
        {
          "indexed": true,
          "internalType": "address",
          "name": "user",
          "type": "address"
        },
        {
          "indexed": false,
          "internalType": "uint256",
          "name": "amount",
          "type": "uint256"
        },
        {
          "indexed": false,
          "internalType": "uint256",
          "name": "lockPeriod",
          "type": "uint256"
        },
        {
          "indexed": false,
          "internalType": "uint256",
          "name": "apy",
          "type": "uint256"
        },
        {
          "indexed": false,
          "internalType": "uint256",
          "name": "index",
          "type": "uint256"
        }
      ],
      "name": "Staked",
      "type": "event"
    },
    {
      "anonymous": false,
      "inputs": [
        {
          "indexed": true,
          "internalType": "address",
          "name": "user",
          "type": "address"
        },
        {
          "indexed": false,
          "internalType": "uint256",
          "name": "amount",
          "type": "uint256"
        },
        {
          "indexed": false,
          "internalType": "uint256",
          "name": "index",
          "type": "uint256"
        }
      ],
      "name": "Unstaked",
      "type": "event"
    },
    {
      "inputs": [
        {
          "internalType": "address",
          "name": "",
          "type": "address"
        },
        {
          "internalType": "uint256",
          "name": "",
          "type": "uint256"
        }
      ],
      "name": "autoReinvestStatus",
      "outputs": [
        {
          "internalType": "bool",
          "name": "",
          "type": "bool"
        }
      ],
      "stateMutability": "view",
      "type": "function"
    },
    {
      "inputs": [
        {
          "internalType": "address",
          "name": "user",
          "type": "address"
        }
      ],
      "name": "calculateRewards",
      "outputs": [
        {
          "internalType": "uint256",
          "name": "",
          "type": "uint256"
        }
      ],
      "stateMutability": "view",
      "type": "function"
    },
    {
      "inputs": [],
      "name": "claimOnlyRewards",
      "outputs": [],
      "stateMutability": "nonpayable",
      "type": "function"
    },
    {
      "inputs": [],
      "name": "claimRewards",
      "outputs": [],
      "stateMutability": "nonpayable",
      "type": "function"
    },
    {
      "inputs": [
        {
          "internalType": "address",
          "name": "user",
          "type": "address"
        }
      ],
      "name": "getAllUserStakes",
      "outputs": [
        {
          "components": [
            {
              "internalType": "uint256",
              "name": "amount",
              "type": "uint256"
            },
            {
              "internalType": "uint256",
              "name": "startTime",
              "type": "uint256"
            },
            {
              "internalType": "uint256",
              "name": "lockPeriod",
              "type": "uint256"
            },
            {
              "internalType": "uint256",
              "name": "apy",
              "type": "uint256"
            },
            {
              "internalType": "uint256",
              "name": "rewardsClaimed",
              "type": "uint256"
            },
            {
              "internalType": "uint256",
              "name": "pendingReinvestRewards",
              "type": "uint256"
            }
          ],
          "internalType": "struct AscStaking.Stake[]",
          "name": "",
          "type": "tuple[]"
        }
      ],
      "stateMutability": "view",
      "type": "function"
    },
    {
      "inputs": [],
      "name": "owner",
      "outputs": [
        {
          "internalType": "address",
          "name": "",
          "type": "address"
        }
      ],
      "stateMutability": "view",
      "type": "function"
    },
    {
      "inputs": [
        {
          "internalType": "uint256",
          "name": "index",
          "type": "uint256"
        }
      ],
      "name": "reinvestRewards",
      "outputs": [],
      "stateMutability": "nonpayable",
      "type": "function"
    },
    {
      "inputs": [],
      "name": "renounceOwnership",
      "outputs": [],
      "stateMutability": "nonpayable",
      "type": "function"
    },
    {
      "inputs": [
        {
          "internalType": "uint256",
          "name": "index",
          "type": "uint256"
        },
        {
          "internalType": "bool",
          "name": "status",
          "type": "bool"
        }
      ],
      "name": "setAutoReinvest",
      "outputs": [],
      "stateMutability": "nonpayable",
      "type": "function"
    },
    {
      "inputs": [
        {
          "internalType": "uint256",
          "name": "amount",
          "type": "uint256"
        },
        {
          "internalType": "uint256",
          "name": "lockPeriodSeconds",
          "type": "uint256"
        }
      ],
      "name": "stakeWithAutoApproval",
      "outputs": [],
      "stateMutability": "nonpayable",
      "type": "function"
    },
    {
      "inputs": [],
      "name": "stakingToken",
      "outputs": [
        {
          "internalType": "contract IERC20",
          "name": "",
          "type": "address"
        }
      ],
      "stateMutability": "view",
      "type": "function"
    },
    {
      "inputs": [],
      "name": "totalStaked",
      "outputs": [
        {
          "internalType": "uint256",
          "name": "",
          "type": "uint256"
        }
      ],
      "stateMutability": "view",
      "type": "function"
    },
    {
      "inputs": [
        {
          "internalType": "address",
          "name": "newOwner",
          "type": "address"
        }
      ],
      "name": "transferOwnership",
      "outputs": [],
      "stateMutability": "nonpayable",
      "type": "function"
    },
    {
      "inputs": [
        {
          "internalType": "uint256",
          "name": "index",
          "type": "uint256"
        }
      ],
      "name": "unstake",
      "outputs": [],
      "stateMutability": "nonpayable",
      "type": "function"
    },
    {
      "inputs": [
        {
          "internalType": "address",
          "name": "",
          "type": "address"
        },
        {
          "internalType": "uint256",
          "name": "",
          "type": "uint256"
        }
      ],
      "name": "userStakes",
      "outputs": [
        {
          "internalType": "uint256",
          "name": "amount",
          "type": "uint256"
        },
        {
          "internalType": "uint256",
          "name": "startTime",
          "type": "uint256"
        },
        {
          "internalType": "uint256",
          "name": "lockPeriod",
          "type": "uint256"
        },
        {
          "internalType": "uint256",
          "name": "apy",
          "type": "uint256"
        },
        {
          "internalType": "uint256",
          "name": "rewardsClaimed",
          "type": "uint256"
        },
        {
          "internalType": "uint256",
          "name": "pendingReinvestRewards",
          "type": "uint256"
        }
      ],
      "stateMutability": "view",
      "type": "function"
    }
  ],
  "bytecode": "0x608060405234801561001057600080fd5b5060405161145e38038061145e83398101604081905261002f916100ad565b6100383361005d565b600180546001600160a01b0319166001600160a01b03929092169190911790556100dd565b600080546001600160a01b038381166001600160a01b0319831681178455604051919092169283917f8be0079c531659141344cd1fd0a4f28419497f9722a3daafe3b4186f6b6457e09190a35050565b6000602082840312156100bf57600080fd5b81516001600160a01b03811681146100d657600080fd5b9392505050565b611372806100ec6000396000f3fe608060405234801561001057600080fd5b50600436106100f55760003560e01c806372f702f311610097578063b5d5b5fa11610066578063b5d5b5fa146101e3578063c5ff81dd14610223578063f2fde38b14610261578063f8353b111461027457600080fd5b806372f702f31461017e578063817b1cd2146101a95780638bd7ca57146101b25780638da5cb5b146101d257600080fd5b80632e17de78116100d35780632e17de7814610135578063372500ab1461014857806364ab867514610150578063715018a61461017657600080fd5b806310956186146100fa57806324293f3d1461010f57806325ae7b9014610122575b600080fd5b61010d610108366004611107565b61027c565b005b61010d61011d366004611137565b610331565b61010d610130366004611150565b610474565b61010d610143366004611137565b6106d5565b61010d610915565b61016361015e36600461118e565b610ad6565b6040519081526020015b60405180910390f35b61010d610bc2565b600154610191906001600160a01b031681565b6040516001600160a01b03909116815260200161016d565b61016360045481565b6101c56101c036600461118e565b610bd6565b60405161016d91906111b0565b6000546001600160a01b0316610191565b6101f66101f1366004611228565b610c87565b604080519687526020870195909552938501929092526060840152608083015260a082015260c00161016d565b610251610231366004611228565b600360209081526000928352604080842090915290825290205460ff1681565b604051901515815260200161016d565b61010d61026f36600461118e565b610cdb565b61010d610d51565b3360009081526002602052604090205482106102cf5760405162461bcd60e51b815260206004820152600d60248201526c092dcecc2d8d2c840d2dcc8caf609b1b60448201526064015b60405180910390fd5b336000818152600360209081526040808320868452825291829020805460ff19168515159081179091558251868152918201527ff015885dd2befc21ccaab9dfcc0f98e6056120ebb80c8e61ba9a9810625340f6910160405180910390a25050565b33600090815260026020526040812080548390811061035257610352611252565b9060005260206000209060060201905060008160000154116103af5760405162461bcd60e51b815260206004820152601660248201527509cde40e6e8c2d6ca40c2e840e8d0d2e640d2dcc8caf60531b60448201526064016102c6565b6005810154806103fa5760405162461bcd60e51b8152602060048201526016602482015275139bc81c995dd85c991cc81d1bc81c995a5b9d995cdd60521b60448201526064016102c6565b8082600001600082825461040e919061127e565b90915550506000600583018190556004805483929061042e90849061127e565b9091555050604080518281526020810185905233917f25bb45f6df98d1018831a278a3dc1880a39cc9cff805f1729656c3139fe5c62d91015b60405180910390a2505050565b600082116104c45760405162461bcd60e51b815260206004820152601d60248201527f416d6f756e74206d7573742062652067726561746572207468616e203000000060448201526064016102c6565b60006104cf82610ee6565b9050600081116105175760405162461bcd60e51b8152602060048201526013602482015272125b9d985b1a59081b1bd8dac81c195c9a5bd9606a1b60448201526064016102c6565b6001546040516323b872dd60e01b8152336004820152306024820152604481018590526001600160a01b03909116906323b872dd906064016020604051808303816000875af115801561056e573d6000803e3d6000fd5b505050506040513d601f19601f820116820180604052508101906105929190611291565b6105ae5760405162461bcd60e51b81526004016102c6906112ae565b33600090815260026020908152604091829020825160c081018452868152429281019290925291810184156105ec576105e7854261127e565b6105ef565b60005b8152602080820185905260006040808401829052606093840182905285546001818101885596835283832086516006909202019081559285015195830195909555938301516002820155908201516003820155608082015160048083019190915560a090920151600590910155805485929061066c90849061127e565b9091555050336000818152600260205260409020547f9cfd25589d1eb8ad71e342a86a8524e83522e3936c0803048c08f6d9ad974f40908590859085906106b5906001906112d7565b604080519485526020850193909352918301526060820152608001610467565b3360009081526002602052604081208054839081106106f6576106f6611252565b9060005260206000209060060201905060008160000154116107535760405162461bcd60e51b815260206004820152601660248201527509cde40e6e8c2d6ca40c2e840e8d0d2e640d2dcc8caf60531b60448201526064016102c6565b60028101541580610768575080600201544210155b6107ac5760405162461bcd60e51b815260206004820152601560248201527414dd185ad9481a5cc81cdd1a5b1b081b1bd8dad959605a1b60448201526064016102c6565b60006107b83384610f5c565b905060008183600001546107cc919061127e565b90508260000154600460008282546107e491906112d7565b909155505033600090815260026020526040902080548590811061080a5761080a611252565b60009182526020822060069190910201818155600180820183905560028201839055600382018390556004808301849055600590920192909255905460405163a9059cbb60e01b81523392810192909252602482018390526001600160a01b03169063a9059cbb906044016020604051808303816000875af1158015610894573d6000803e3d6000fd5b505050506040513d601f19601f820116820180604052508101906108b89190611291565b6108d45760405162461bcd60e51b81526004016102c6906112ae565b604080518281526020810186905233917f7fc4727e062e336010f2c282598ef5f14facb3de68cf8195c2f23e1454b2b74e910160405180910390a250505050565b6000805b33600090815260026020526040902054811015610a715733600090815260026020526040812080548390811061095157610951611252565b90600052602060002090600602019050600061096d3384610f5c565b90508160040154811115610a5c57600082600401548261098d91906112d7565b6004840183905533600090815260036020908152604080832088845290915290205490915060ff1615610a3357808360000160008282546109ce919061127e565b9091555050600060058401819055600480548392906109ee90849061127e565b9091555050604080518281526020810186905233917f25bb45f6df98d1018831a278a3dc1880a39cc9cff805f1729656c3139fe5c62d910160405180910390a2610a5a565b80836005016000828254610a47919061127e565b90915550610a579050818661127e565b94505b505b50508080610a69906112ea565b915050610919565b506000811180610a8f57503360009081526002602052604090205415155b610ad35760405162461bcd60e51b81526020600482015260156024820152744e6f207265776172647320746f2070726f6365737360581b60448201526064016102c6565b50565b600080805b6001600160a01b038416600090815260026020526040902054811015610bbb576001600160a01b0384166000908152600260205260409020805482908110610b2557610b25611252565b90600052602060002090600602016005015460026000866001600160a01b03166001600160a01b031681526020019081526020016000208281548110610b6d57610b6d611252565b906000526020600020906006020160040154610b898684610f5c565b610b9391906112d7565b610b9d919061127e565b610ba7908361127e565b915080610bb3816112ea565b915050610adb565b5092915050565b610bca61104f565b610bd460006110a9565b565b6001600160a01b0381166000908152600260209081526040808320805482518185028101850190935280835260609492939192909184015b82821015610c7c57838290600052602060002090600602016040518060c0016040529081600082015481526020016001820154815260200160028201548152602001600382015481526020016004820154815260200160058201548152505081526020019060010190610c0e565b505050509050919050565b60026020528160005260406000208181548110610ca357600080fd5b600091825260209091206006909102018054600182015460028301546003840154600485015460059095015493965091945092909186565b610ce361104f565b6001600160a01b038116610d485760405162461bcd60e51b815260206004820152602660248201527f4f776e61626c653a206e6577206f776e657220697320746865207a65726f206160448201526564647265737360d01b60648201526084016102c6565b610ad3816110a9565b6000805b33600090815260026020526040902054811015610dd657336000908152600260205260408120805483908110610d8d57610d8d611252565b90600052602060002090600602019050600081600501541115610dc3576005810154610db9908461127e565b6000600583015592505b5080610dce816112ea565b915050610d55565b5060008111610e1d5760405162461bcd60e51b81526020600482015260136024820152724e6f207265776172647320746f20636c61696d60681b60448201526064016102c6565b60015460405163a9059cbb60e01b8152336004820152602481018390526001600160a01b039091169063a9059cbb906044016020604051808303816000875af1158015610e6e573d6000803e3d6000fd5b505050506040513d601f19601f82011682018060405250810190610e929190611291565b610eae5760405162461bcd60e51b81526004016102c6906112ae565b60405181815233907ffc30cddea38e2bf4d6ea7d3f9ed3b6ad7f176419f4963bd81318067a4aee73fe9060200160405180910390a250565b600081600003610ef857506002919050565b8162278d0003610f0a57506005919050565b816276a70003610f1c57506008919050565b8162ed4e0003610f2e5750600c919050565b816301e1338003610f4157506010919050565b816303c2670003610f5457506014919050565b506000919050565b6001600160a01b0382166000908152600260205260408120805482919084908110610f8957610f89611252565b90600052602060002090600602016040518060c0016040529081600082015481526020016001820154815260200160028201548152602001600382015481526020016004820154815260200160058201548152505090506000816040015160001480610ff85750816040015142105b611006578160400151611008565b425b905063bbf81e0082602001518261101f91906112d7565b606084015184516110309190611303565b61103a9190611303565b611044919061131a565b925050505b92915050565b6000546001600160a01b03163314610bd45760405162461bcd60e51b815260206004820181905260248201527f4f776e61626c653a2063616c6c6572206973206e6f7420746865206f776e657260448201526064016102c6565b600080546001600160a01b038381166001600160a01b0319831681178455604051919092169283917f8be0079c531659141344cd1fd0a4f28419497f9722a3daafe3b4186f6b6457e09190a35050565b8015158114610ad357600080fd5b6000806040838503121561111a57600080fd5b82359150602083013561112c816110f9565b809150509250929050565b60006020828403121561114957600080fd5b5035919050565b6000806040838503121561116357600080fd5b50508035926020909101359150565b80356001600160a01b038116811461118957600080fd5b919050565b6000602082840312156111a057600080fd5b6111a982611172565b9392505050565b602080825282518282018190526000919060409081850190868401855b8281101561121b5781518051855286810151878601528581015186860152606080820151908601526080808201519086015260a0908101519085015260c090930192908501906001016111cd565b5091979650505050505050565b6000806040838503121561123b57600080fd5b61124483611172565b946020939093013593505050565b634e487b7160e01b600052603260045260246000fd5b634e487b7160e01b600052601160045260246000fd5b8082018082111561104957611049611268565b6000602082840312156112a357600080fd5b81516111a9816110f9565b6020808252600f908201526e151c985b9cd9995c8819985a5b1959608a1b604082015260600190565b8181038181111561104957611049611268565b6000600182016112fc576112fc611268565b5060010190565b808202811582820484141761104957611049611268565b60008261133757634e487b7160e01b600052601260045260246000fd5b50049056fea26469706673582212201101a00b91770b973fcdc85b9488f36041c0a50512b7c6684015e31e5ea973e064736f6c63430008130033",
  "linkReferences": {},
  "deployedLinkReferences": {}
}