{
    "_format": "hh-sol-artifact-1",
    "contractName": "AscRewards",
    "sourceName": "contracts/AscRewards.sol",
    "abi": [
        {
            "inputs": [
                {
                    "internalType": "contract IERC20",
                    "name": "_ascToken",
                    "type": "address"
                },
                {
                    "internalType": "uint256",
                    "name": "_rewardPool",
                    "type": "uint256"
                }
            ],
            "stateMutability": "nonpayable",
            "type": "constructor"
        },
        {
            "anonymous": false,
            "inputs": [
                {
                    "indexed": true,
                    "internalType": "address",
                    "name": "user",
                    "type": "address"
                },
                {
                    "indexed": false,
                    "internalType": "bytes32",
                    "name": "pairId",
                    "type": "bytes32"
                },
                {
                    "indexed": false,
                    "internalType": "uint256",
                    "name": "liquidityAmount",
                    "type": "uint256"
                }
            ],
            "name": "LiquidityAdded",
            "type": "event"
        },
        {
            "anonymous": false,
            "inputs": [
                {
                    "indexed": true,
                    "internalType": "address",
                    "name": "user",
                    "type": "address"
                },
                {
                    "indexed": false,
                    "internalType": "bytes32",
                    "name": "pairId",
                    "type": "bytes32"
                },
                {
                    "indexed": false,
                    "internalType": "uint256",
                    "name": "liquidityAmount",
                    "type": "uint256"
                }
            ],
            "name": "LiquidityRemoved",
            "type": "event"
        },
        {
            "anonymous": false,
            "inputs": [
                {
                    "indexed": true,
                    "internalType": "address",
                    "name": "previousOwner",
                    "type": "address"
                },
                {
                    "indexed": true,
                    "internalType": "address",
                    "name": "newOwner",
                    "type": "address"
                }
            ],
            "name": "OwnershipTransferred",
            "type": "event"
        },
        {
            "anonymous": false,
            "inputs": [
                {
                    "indexed": false,
                    "internalType": "uint256",
                    "name": "amount",
                    "type": "uint256"
                }
            ],
            "name": "RewardPoolToppedUp",
            "type": "event"
        },
        {
            "anonymous": false,
            "inputs": [
                {
                    "indexed": true,
                    "internalType": "address",
                    "name": "user",
                    "type": "address"
                },
                {
                    "indexed": false,
                    "internalType": "uint256",
                    "name": "rewardAmount",
                    "type": "uint256"
                }
            ],
            "name": "RewardsAllocated",
            "type": "event"
        },
        {
            "anonymous": false,
            "inputs": [
                {
                    "indexed": true,
                    "internalType": "address",
                    "name": "user",
                    "type": "address"
                },
                {
                    "indexed": false,
                    "internalType": "uint256",
                    "name": "claimedAmount",
                    "type": "uint256"
                }
            ],
            "name": "RewardsClaimed",
            "type": "event"
        },
        {
            "inputs": [
                {
                    "internalType": "address",
                    "name": "user",
                    "type": "address"
                },
                {
                    "internalType": "bytes32",
                    "name": "pairId",
                    "type": "bytes32"
                },
                {
                    "internalType": "uint256",
                    "name": "reward",
                    "type": "uint256"
                },
                {
                    "internalType": "uint256",
                    "name": "liquidityAmount",
                    "type": "uint256"
                }
            ],
            "name": "allocateRewardsAndLiquidity",
            "outputs": [],
            "stateMutability": "nonpayable",
            "type": "function"
        },
        {
            "inputs": [],
            "name": "ascToken",
            "outputs": [
                {
                    "internalType": "contract IERC20",
                    "name": "",
                    "type": "address"
                }
            ],
            "stateMutability": "view",
            "type": "function"
        },
        {
            "inputs": [],
            "name": "claimRewards",
            "outputs": [],
            "stateMutability": "nonpayable",
            "type": "function"
        },
        {
            "inputs": [],
            "name": "owner",
            "outputs": [
                {
                    "internalType": "address",
                    "name": "",
                    "type": "address"
                }
            ],
            "stateMutability": "view",
            "type": "function"
        },
        {
            "inputs": [
                {
                    "internalType": "address",
                    "name": "user",
                    "type": "address"
                },
                {
                    "internalType": "bytes32",
                    "name": "pairId",
                    "type": "bytes32"
                },
                {
                    "internalType": "uint256",
                    "name": "liquidityAmount",
                    "type": "uint256"
                }
            ],
            "name": "removeLiquidityReward",
            "outputs": [],
            "stateMutability": "nonpayable",
            "type": "function"
        },
        {
            "inputs": [],
            "name": "renounceOwnership",
            "outputs": [],
            "stateMutability": "nonpayable",
            "type": "function"
        },
        {
            "inputs": [
                {
                    "internalType": "address",
                    "name": "",
                    "type": "address"
                }
            ],
            "name": "rewardBalances",
            "outputs": [
                {
                    "internalType": "uint256",
                    "name": "",
                    "type": "uint256"
                }
            ],
            "stateMutability": "view",
            "type": "function"
        },
        {
            "inputs": [],
            "name": "rewardPool",
            "outputs": [
                {
                    "internalType": "uint256",
                    "name": "",
                    "type": "uint256"
                }
            ],
            "stateMutability": "view",
            "type": "function"
        },
        {
            "inputs": [
                {
                    "internalType": "uint256",
                    "name": "amount",
                    "type": "uint256"
                }
            ],
            "name": "topUpRewardPool",
            "outputs": [],
            "stateMutability": "nonpayable",
            "type": "function"
        },
        {
            "inputs": [
                {
                    "internalType": "address",
                    "name": "newOwner",
                    "type": "address"
                }
            ],
            "name": "transferOwnership",
            "outputs": [],
            "stateMutability": "nonpayable",
            "type": "function"
        },
        {
            "inputs": [
                {
                    "internalType": "address",
                    "name": "",
                    "type": "address"
                },
                {
                    "internalType": "bytes32",
                    "name": "",
                    "type": "bytes32"
                }
            ],
            "name": "userLiquidity",
            "outputs": [
                {
                    "internalType": "uint256",
                    "name": "",
                    "type": "uint256"
                }
            ],
            "stateMutability": "view",
            "type": "function"
        }
    ],
    "bytecode": "0x608060405234801561001057600080fd5b506040516109c13803806109c183398101604081905261002f9161010b565b610038336100bb565b6001600160a01b0382166100925760405162461bcd60e51b815260206004820152601560248201527f496e76616c696420746f6b656e20616464726573730000000000000000000000604482015260640160405180910390fd5b600180546001600160a01b0319166001600160a01b039390931692909217909155600255610145565b600080546001600160a01b038381166001600160a01b0319831681178455604051919092169283917f8be0079c531659141344cd1fd0a4f28419497f9722a3daafe3b4186f6b6457e09190a35050565b6000806040838503121561011e57600080fd5b82516001600160a01b038116811461013557600080fd5b6020939093015192949293505050565b61086d806101546000396000f3fe608060405234801561001057600080fd5b50600436106100a95760003560e01c80638da5cb5b116100715780638da5cb5b1461013257806393c8dc6d146101435780639a9f856c14610163578063b0c1026d14610176578063b5582c2414610189578063f2fde38b1461019c57600080fd5b8063372500ab146100ae57806358b908ae146100b85780635acfb8c9146100f657806366666aa914610121578063715018a61461012a575b600080fd5b6100b66101af565b005b6100e36100c6366004610702565b600460209081526000928352604080842090915290825290205481565b6040519081526020015b60405180910390f35b600154610109906001600160a01b031681565b6040516001600160a01b0390911681526020016100ed565b6100e360025481565b6100b6610305565b6000546001600160a01b0316610109565b6100e361015136600461072c565b60036020526000908152604090205481565b6100b661017136600461074e565b610319565b6100b6610184366004610767565b61036e565b6100b66101973660046107a0565b6104c7565b6100b66101aa36600461072c565b6105c3565b33600090815260036020526040902054806102075760405162461bcd60e51b81526020600482015260136024820152724e6f207265776172647320746f20636c61696d60681b60448201526064015b60405180910390fd5b3360008181526003602052604080822091909155600154905163a9059cbb60e01b81526004810192909252602482018390526001600160a01b03169063a9059cbb906044016020604051808303816000875af115801561026b573d6000803e3d6000fd5b505050506040513d601f19601f8201168201806040525081019061028f91906107d3565b6102cd5760405162461bcd60e51b815260206004820152600f60248201526e151c985b9cd9995c8819985a5b1959608a1b60448201526064016101fe565b60405181815233907ffc30cddea38e2bf4d6ea7d3f9ed3b6ad7f176419f4963bd81318067a4aee73fe9060200160405180910390a250565b61030d61063c565b6103176000610696565b565b61032161063c565b8060026000828254610333919061080b565b90915550506040518181527fc06da5eef8b11ec3f88353a2b13ac5ec020871bb8215dd0f8f1e5293ddc01f309060200160405180910390a150565b61037661063c565b6002548211156103c15760405162461bcd60e51b8152602060048201526016602482015275139bdd08195b9bdd59da081c995dd85c99081c1bdbdb60521b60448201526064016101fe565b6001600160a01b038416600090815260036020526040812080548492906103e990849061080b565b9250508190555081600260008282546104029190610824565b90915550506001600160a01b03841660009081526004602090815260408083208684529091528120805483929061043a90849061080b565b90915550506040518281526001600160a01b038516907f560ef4f9524af91c8f006852a8707c3f256c238779f8cc088bbe202bb82e632e9060200160405180910390a260408051848152602081018390526001600160a01b038616917fe3dcbe559b610f5784b9db6ab7a250c9c7cc6aa560eae7dfc50de489602b5654910160405180910390a250505050565b6104cf61063c565b6001600160a01b03831660009081526004602090815260408083208584529091529020548111156105425760405162461bcd60e51b815260206004820152601e60248201527f496e73756666696369656e7420747261636b6564206c6971756964697479000060448201526064016101fe565b6001600160a01b038316600090815260046020908152604080832085845290915281208054839290610575908490610824565b909155505060408051838152602081018390526001600160a01b038516917f512142965b9e43ff2d7d4e078277b9b45609b1f24b5d1508e57f57384d9121ec910160405180910390a2505050565b6105cb61063c565b6001600160a01b0381166106305760405162461bcd60e51b815260206004820152602660248201527f4f776e61626c653a206e6577206f776e657220697320746865207a65726f206160448201526564647265737360d01b60648201526084016101fe565b61063981610696565b50565b6000546001600160a01b031633146103175760405162461bcd60e51b815260206004820181905260248201527f4f776e61626c653a2063616c6c6572206973206e6f7420746865206f776e657260448201526064016101fe565b600080546001600160a01b038381166001600160a01b0319831681178455604051919092169283917f8be0079c531659141344cd1fd0a4f28419497f9722a3daafe3b4186f6b6457e09190a35050565b80356001600160a01b03811681146106fd57600080fd5b919050565b6000806040838503121561071557600080fd5b61071e836106e6565b946020939093013593505050565b60006020828403121561073e57600080fd5b610747826106e6565b9392505050565b60006020828403121561076057600080fd5b5035919050565b6000806000806080858703121561077d57600080fd5b610786856106e6565b966020860135965060408601359560600135945092505050565b6000806000606084860312156107b557600080fd5b6107be846106e6565b95602085013595506040909401359392505050565b6000602082840312156107e557600080fd5b8151801515811461074757600080fd5b634e487b7160e01b600052601160045260246000fd5b8082018082111561081e5761081e6107f5565b92915050565b8181038181111561081e5761081e6107f556fea2646970667358221220852b2f6afecf611909bb054f8dfb965e64c34bf09e9e6bb4c781e8f8185888f964736f6c63430008130033",
    "linkReferences": {},
    "deployedLinkReferences": {}
}